:020000040800F2
:1000000000C00020994100087D4100087F410008A0
:10001000814100088341000885410008000000007C
:100020000000000000000000000000008741000800
:1000300089410008000000008B4100088D41000844
:10004000E1410008E1410008E1410008E141000808
:10005000E1410008E1410008E1410008E1410008F8
:10006000E1410008E1410008E1410008613B00086E
:10007000E1410008E1410008E1410008E1410008D8
:10008000E1410008E1410008E1410008E1410008C8
:10009000E1410008E1410008E1410008E1410008B8
:1000A000E1410008E1410008E1410008E1410008A8
:1000B000E1410008E1410008E1410008E141000898
:1000C000E1410008E1410008E1410008E141000888
:1000D000E1410008E1410008E1410008E141000878
:1000E000E1410008E1410008E1410008E141000868
:1000F000E1410008E1410008E1410008E141000858
:10010000E1410008E1410008E1410008E141000847
:10011000E1410008E1410008E1410008E141000837
:10012000E1410008E1410008E1410008E141000827
:1001300000000000000000000000000000000000BF
:1001400000000000000000000000000000000000AF
:10015000000000000000000000000000000000009F
:10016000000000000000000000000000000000008F
:10017000000000000000000000000000000000007F
:10018000000000000000000000000000000000006F
:10019000000000000000000000000000000000005F
:1001A000000000000000000000000000000000004F
:1001B000000000000000000000000000000000003F
:1001C000000000000000000000000000000000002F
:1001D000000000000000000000000000000000001F
:0401E0005FF8E0F1F3
:1001E80010B5054C237833B9044B13B10448AFF369
:1001F80000800123237010BDFC01002000000000D6
:10020800C86D000808B5034B1BB103490348AFF399
:10021800008008BD0000000000020020C86D000832
:10022800034613F8012B002AFBD1181A013870472E
:1002380081F0004102E000BF83F0004330B54FEA8F
:1002480041044FEA430594EA050F08BF90EA020FFC
:100258001FBF54EA000C55EA020C7FEA645C7FEA8F
:10026800655C00F0E2804FEA5454D4EB5555B8BFB2
:100278006D420CDD2C4480EA020281EA030382EA23
:10028800000083EA010180EA020281EA0303362DB5
:1002980088BF30BD11F0004F4FEA01314FF4801C88
:1002A8004CEA113102D0404261EB410113F0004F9A
:1002B8004FEA03334CEA133302D0524263EB430351
:1002C80094EA050F00F0A780A4F10104D5F1200EEF
:1002D8000DDB02FA0EFC22FA05F2801841F100014A
:1002E80003FA0EF2801843FA05F359410EE0A5F11E
:1002F80020050EF1200E012A03FA0EFC28BF4CF04F
:10030800020C43FA05F3C01851EBE37101F0004504
:1003180007D54FF0000EDCF1000C7EEB00006EEB11
:100328000101B1F5801F1BD3B1F5001F0CD349089B
:100338005FEA30004FEA3C0C04F101044FEA4452F2
:1003480012F5800F80F09A80BCF1004F08BF5FEA79
:10035800500C50F1000041EB045141EA050130BD59
:100368005FEA4C0C404141EB010111F4801FA4F1FC
:100378000104E9D191F0000F04BF01460020B1FA51
:1003880081F308BF2033A3F10B03B3F120020CDA89
:100398000C3208DD02F1140CC2F10C0201FA0CF067
:1003A80021FA02F10CE002F11402D8BFC2F1200CCC
:1003B80001FA02F120FA0CFCDCBF41EA0C01904082
:1003C800E41AA2BF01EB0451294330BD6FEA0404CB
:1003D8001F3C1CDA0C340EDC04F11404C4F12002B6
:1003E80020FA04F001FA02F340EA030021FA04F3C8
:1003F80045EA030130BDC4F10C04C4F1200220FA1F
:1004080002F001FA04F340EA0300294630BD21FA5C
:1004180004F0294630BD94F0000F83F4801306BF22
:1004280081F480110134013D4EE77FEA645C18BF16
:100438007FEA655C29D094EA050F08BF90EA020FAD
:1004480005D054EA000C04BF1946104630BD91EAA5
:10045800030F1EBF0021002030BD5FEA545C05D1A8
:100468004000494128BF41F0004130BD14F58004E7
:100478003CBF01F5801130BD01F0004545F0FE415B
:1004880041F470014FF0000030BD7FEA645C1ABF90
:10049800194610467FEA655C1CBF0B46024650EAC7
:1004A800013406BF52EA033591EA030F41F40021F3
:1004B80030BD00BF90F0000F04BF0021704730B579
:1004C8004FF4806404F132044FF000054FF000014E
:1004D80050E700BF90F0000F04BF0021704730B50F
:1004E8004FF4806404F1320410F0004548BF4042E4
:1004F8004FF000013EE700BF42004FEAE2014FEA39
:1005080031014FEA02701FBF12F07F4393F07F4F13
:1005180081F06051704732F07F4208BF704793F016
:100528007F4F04BF41F40021704730B54FF4607429
:1005380001F0004521F000411CE700BF50EA01022C
:1005480008BF704730B54FF000050AE050EA0102D5
:1005580008BF704730B511F0004502D5404261EB45
:1005680041014FF4806404F132045FEA915C3FF486
:10057800D8AE4FF003025FEADC0C18BF03325FEA23
:10058800DC0C18BF033202EBDC02C2F1200300FAD4
:1005980003FC20FA02F001FA03FE40EA0E0021FAF9
:1005A80002F11444BDE600BF70B54FF0FF0C4CF4E7
:1005B800E06C1CEA11541DBF1CEA135594EA0C0F99
:1005C80095EA0C0F00F0DEF82C4481EA030621EAD4
:1005D8004C5123EA4C5350EA013518BF52EA03350F
:1005E80041F4801143F4801338D0A0FB02CE4FF0C1
:1005F8000005E1FB02E506F00042E0FB03E54FF0F1
:100608000006E1FB03569CF0000F18BF4EF0010EE8
:10061800A4F1FF04B6F5007F64F5407404D25FEAE4
:100628004E0E6D4146EB060642EAC62141EA555197
:100638004FEAC52040EA5E504FEACE2EB4F1FD0CD9
:1006480088BFBCF5E06F1ED8BEF1004F08BF5FEA57
:10065800500E50F1000041EB045170BD06F0004609
:1006680046EA010140EA020081EA0301B4EB5C04B6
:10067800C2BFD4EB0C0541EA045170BD41F48011AE
:100688004FF0000E013C00F3AB8014F1360FDEBFD3
:10069800002001F0004170BDC4F10004203C35DAAF
:1006A8000C341BDC04F11404C4F1200500FA05F332
:1006B80020FA04F001FA05F240EA020001F00042D3
:1006C80021F0004110EBD37021FA04F642EB060149
:1006D8005EEA430E08BF20EAD37070BDC4F10C0473
:1006E800C4F1200500FA04F320FA05F001FA04F237
:1006F80040EA020001F0004110EBD37041F1000123
:100708005EEA430E08BF20EAD37070BDC4F120052D
:1007180000FA05F24EEA020E20FA04F301FA05F295
:1007280043EA020321FA04F001F0004121FA04F23D
:1007380020EA020000EBD3705EEA430E08BF20EA0D
:10074800D37070BD94F0000F0FD101F00046400047
:1007580041EB010111F4801F08BF013CF7D041EAC9
:10076800060195F0000F18BF704703F000465200CD
:1007780043EB030313F4801F08BF013DF7D043EA9E
:100788000603704794EA0C0F0CEA135518BF95EA54
:100798000C0F0CD050EA410618BF52EA4306D1D1DB
:1007A80081EA030101F000414FF0000070BD50EAFA
:1007B800410606BF1046194652EA430619D094EA84
:1007C8000C0F02D150EA013613D195EA0C0F05D16E
:1007D80052EA03361CBF104619460AD181EA0301C2
:1007E80001F0004141F0FE4141F470014FF000007A
:1007F80070BD41F0FE4141F4780170BD70B54FF015
:10080800FF0C4CF4E06C1CEA11541DBF1CEA135594
:1008180094EA0C0F95EA0C0F00F0A7F8A4EB050476
:1008280081EA030E52EA03354FEA013100F088806D
:100838004FEA03334FF0805545EA131343EA126336
:100848004FEA022245EA111545EA10654FEA0026EB
:100858000EF000419D4208BF964244F1FD0404F5A4
:10086800407402D25B084FEA3202B61A65EB030500
:100878005B084FEA32024FF480104FF4002CB6EBBD
:10088800020E75EB030E22BFB61A754640EA0C003D
:100898005B084FEA3202B6EB020E75EB030E22BF7D
:1008A800B61A754640EA5C005B084FEA3202B6EBBE
:1008B800020E75EB030E22BFB61A754640EA9C007D
:1008C8005B084FEA3202B6EB020E75EB030E22BF4D
:1008D800B61A754640EADC0055EA060E18D04FEA0B
:1008E800051545EA16754FEA06164FEAC30343EAAB
:1008F80052734FEAC2025FEA1C1CC0D111F4801F78
:100908000BD141EA00014FF000004FF0004CB6E770
:1009180011F4801F04BF01430020B4F1FD0C88BF0F
:10092800BCF5E06F3FF6AFAEB5EB030C04BFB6EB1A
:10093800020C5FEA500C50F1000041EB045170BD0D
:100948000EF0004E4EEA113114EB5C04C2BFD4EB3A
:100958000C0541EA045170BD41F480114FF0000EBE
:10096800013C90E645EA060E8DE60CEA135594EA3A
:100978000C0F08BF95EA0C0F3FF43BAF94EA0C0F3D
:100988000AD150EA01347FF434AF95EA0C0F7FF4B2
:1009980025AF104619462CE795EA0C0F06D152EA06
:1009A80003353FF4FDAE1046194622E750EA4106EA
:1009B80018BF52EA43067FF4C5AE50EA41047FF4FB
:1009C8000DAF52EA43057FF4EBAE12E74FF0FF3C60
:1009D80006E000BF4FF0010C02E000BF4FF0010C31
:1009E8004DF804CD4FEA410C7FEA6C5C4FEA430CAA
:1009F80018BF7FEA6C5C1BD001B050EA410C0CBFF9
:100A080052EA430C91EA030F02BF90EA020F00205A
:100A1800704710F1000F91EA030F58BF994208BFC1
:100A280090422CBFD8176FEAE37040F0010070477E
:100A38004FEA410C7FEA6C5C02D150EA013C07D1D5
:100A48004FEA430C7FEA6C5CD6D152EA033CD3D020
:100A58005DF8040B704700BF8446104662468C461A
:100A68001946634600E000BF01B5FFF7B7FF00284D
:100A780048BF10F1000F01BD4DF808EDFFF7F4FF76
:100A88000CBF012000205DF808FB00BF4DF808ED01
:100A9800FFF7EAFF34BF012000205DF808FB00BF24
:100AA8004DF808EDFFF7E0FF94BF012000205DF846
:100AB80008FB00BF4DF808EDFFF7CEFF94BF0120FB
:100AC80000205DF808FB00BF4DF808EDFFF7C4FFF4
:100AD80034BF012000205DF808FB00BF4FEA410C3D
:100AE8007FEA6C5C02D150EA013C0AD14FEA430C20
:100AF8007FEA6C5C02D152EA033C02D14FF000005D
:100B080070474FF0010070474FEA410212F500129A
:100B180015D211D56FF47873B3EB625212D94FEA3C
:100B2800C12343F0004343EA505311F0004F23FA26
:100B380002F018BF404270474FF00000704750EA7B
:100B4800013005D111F0004008BF6FF00040704738
:100B58004FF00000704700BF4FEA4102B2F1E04396
:100B680024BFB3F5001CDCF1FE5C0DD901F0004C8C
:100B78004FEAC0024CEA5070B2F1004F40EB8300DC
:100B880008BF20F00100704711F0804F21D113F108
:100B98003872BCBF01F00040704741F480114FEA41
:100BA8005252C2F11802C2F1200C10FA0CF320FACA
:100BB80002F018BF40F001004FEAC1234FEAD323E7
:100BC80003FA0CFC40EA0C0023FA02F34FEA430351
:100BD800CCE77FEA625307D150EA01331EBF4FF0DA
:100BE800FE4040F44000704701F0004040F0FE40F5
:100BF80040F40000704700BF80F0004002E000BFF2
:100C080081F0004142001FBF5FEA410392EA030FEF
:100C18007FEA226C7FEA236C6AD04FEA1262D2EB39
:100C28001363C1BFD218414048404140B8BF5B423E
:100C3800192B88BF704710F0004F40F4000020F0D7
:100C48007F4018BF404211F0004F41F4000121F0ED
:100C58007F4118BF494292EA030F3FD0A2F1010237
:100C680041FA03FC10EB0C00C3F1200301FA03F175
:100C780000F0004302D5494260EB4000B0F5000F98
:100C880013D3B0F1807F06D340084FEA310102F157
:100C98000102FE2A51D2B1F1004F40EBC25008BF09
:100CA80020F0010040EA03007047490040EB0000D3
:100CB80010F4000FA2F10102EDD1B0FA80FCACF102
:100CC800080CB2EB0C0200FA0CF0AABF00EBC25001
:100CD80052421843BCBFD0401843704792F0000FEF
:100CE80081F4000106BF80F400000132013BB5E742
:100CF8004FEA41037FEA226C18BF7FEA236C21D0B8
:100D080092EA030F04D092F0000F08BF084670471C
:100D180090EA010F1CBF0020704712F07F4F04D1EA
:100D2800400028BF40F00040704712F100723CBFFD
:100D380000F50000704700F0004343F0FE4040F427
:100D4800000070477FEA226216BF08467FEA2363E5
:100D58000146420206BF5FEA412390EA010F40F4D0
:100D6800800070474FF0000304E000BF10F000431C
:100D780048BF40425FEA000C08BF704743F0964303
:100D880001464FF000001CE050EA010208BF70471E
:100D98004FF000030AE000BF50EA010208BF7047A5
:100DA80011F0004302D5404261EB41015FEA010CBA
:100DB80002BF84460146002043F0B64308BFA3F1B2
:100DC8008053A3F50003BCFA8CF2083AA3EBC25394
:100DD80010DB01FA02FC634400FA02FCC2F12002B3
:100DE800BCF1004F20FA02F243EB020008BF20F0EA
:100DF8000100704702F1200201FA02FCC2F1200250
:100E080050EA4C0021FA02F243EB020008BF20EA44
:100E1800DC7070474FF0FF0C1CEAD0521EBF1CEA72
:100E2800D15392EA0C0F93EA0C0F6FD01A4480EA60
:100E3800010C400218BF5FEA41211ED04FF0006349
:100E480043EA501043EA5111A0FB01310CF0004075
:100E5800B1F5000F3EBF490041EAD3715B0040EA9B
:100E6800010062F17F02FD2A1DD8B3F1004F40EB6B
:100E7800C25008BF20F00100704790F0000F0CF03E
:100E8800004C08BF49024CEA502040EA51207F3A02
:100E9800C2BFD2F1FF0340EAC250704740F40000DD
:100EA8004FF00003013A5DDC12F1190FDCBF00F0CE
:100EB80000407047C2F10002410021FA02F1C2F17C
:100EC800200200FA02FC5FEA310040F1000053EA18
:100ED8004C0308BF20EADC70704792F0000F00F066
:100EE800004C02BF400010F4000F013AF9D040EA6C
:100EF8000C0093F0000F01F0004C02BF490011F400
:100F0800000F013BF9D041EA0C018FE70CEAD153FD
:100F180092EA0C0F18BF93EA0C0F0AD030F0004C7D
:100F280018BF31F0004CD8D180EA010000F0004031
:100F3800704790F0000F17BF90F0004F084691F0EF
:100F4800000F91F0004F14D092EA0C0F01D1420229
:100F58000FD193EA0C0F03D14B0218BF084608D1F2
:100F680080EA010000F0004040F0FE4040F400003C
:100F7800704740F0FE4040F4400070474FF0FF0CCF
:100F88001CEAD0521EBF1CEAD15392EA0C0F93EA16
:100F98000C0F69D0A2EB030280EA010C49024FEA68
:100FA800402037D04FF0805343EA111143EA101321
:100FB8000CF000408B4238BF5B0042F17D024FF4D9
:100FC800000C8B4224BF5B1A40EA0C00B3EB510FB4
:100FD80024BFA3EB510340EA5C00B3EB910F24BF9D
:100FE800A3EB910340EA9C00B3EBD10F24BFA3EB22
:100FF800D10340EADC001B0118BF5FEA1C1CE0D1EA
:10100800FD2A3FF650AF8B4240EBC25008BF20F09C
:10101800010070470CF0004C4CEA50207F32C2BFF0
:10102800D2F1FF0340EAC250704740F400004FF08D
:101038000003013A37E792F0000F00F0004C02BFBE
:10104800400010F4000F013AF9D040EA0C0093F088
:10105800000F01F0004C02BF490011F4000F013BE2
:10106800F9D041EA0C0195E70CEAD15392EA0C0F4A
:1010780008D142027FF47DAF93EA0C0F7FF470AF82
:10108800084676E793EA0C0F04D14B023FF44CAFC5
:1010980008466EE730F0004C18BF31F0004CCAD15A
:1010A80030F000427FF45CAF31F000437FF43CAF96
:1010B8005FE700BF4FF0FF3C06E000BF4FF0010CB8
:1010C80002E000BF4FF0010C4DF804CD4FEA40029A
:1010D8004FEA41037FEA226C18BF7FEA236C11D0E4
:1010E80001B052EA530C18BF90EA010F58BFB2EB97
:1010F800030088BFC81738BF6FEAE17018BF40F017
:10110800010070477FEA226C02D15FEA402C05D1CA
:101118007FEA236CE4D15FEA412CE1D05DF8040B4F
:10112800704700BF844608466146FFE70FB5FFF7E2
:10113800C9FF002848BF10F1000F0FBD4DF808ED9A
:10114800FFF7F4FF0CBF012000205DF808FB00BF8B
:101158004DF808EDFFF7EAFF34BF012000205DF8E5
:1011680008FB00BF4DF808EDFFF7E0FF94BF012032
:1011780000205DF808FB00BF4DF808EDFFF7D2FF2F
:1011880094BF012000205DF808FB00BF4DF808ED72
:10119800FFF7C8FF34BF012000205DF808FB00BF3F
:1011A8004FEA4002B2F1FE4F0FD34FF09E03B3EB6C
:1011B80012620DD94FEA002343F0004310F0004FAC
:1011C80023FA02F018BF404270474FF00000704702
:1011D80012F1610F01D1420205D110F0004008BFA1
:1011E8006FF0004070474FF00000704782B0084B26
:1011F8001B68084AA2FB03235B0A00FB03F001906B
:1012080000BF019B5A1E0192002BF9D102B0704712
:1012180000000020D34D621070B582B00446036808
:1012280013F0010F2CD0AB4B5B6803F00C03042BBD
:101238001DD0A84B5B6803F00C03082B12D0636821
:10124800B3F5803F41D0002B55D103F1804303F51E
:1012580004331A6822F480321A601A6822F4802251
:101268001A6037E09B4B5B6813F4803FE7D0994BDB
:101278001B6813F4003F03D06368002B00F0AE81B5
:10128800236813F0020F76D0924B5B6813F00C0FB3
:101298005FD0904B5B6803F00C03082B54D0236994
:1012A800002B00F08A808C4B01221A6000F0F8FFB6
:1012B8000546884B1B6813F0020F75D100F0F0FF4C
:1012C800401B0228F5D903208BE1824A136843F4B6
:1012D80080331360636843B300F0E2FF05467D4B3B
:1012E8001B6813F4003FCBD100F0DAFF401B6428E1
:1012F800F5D9032075E1B3F5A02F09D0754B1A680D
:1013080022F480321A601A6822F480221A60E1E717
:1013180003F18043A3F53C331A6842F480221A6033
:101328001A6842F480321A60D4E700F0B9FF054623
:10133800684B1B6813F4003FA2D000F0B1FF401BBC
:101348006428F5D903204CE1624B5B6813F4803FB5
:10135800A5D1604B1B6813F0020F04D02369012B41
:1013680001D001203DE15B4A136823F0F80361696D
:1013780043EAC1031360236813F0080F32D0A3694E
:10138800002B5BD0554B01221A6000F089FF0546FF
:10139800504B5B6A13F0020F21D100F081FF401B14
:1013A8000228F5D903201CE14A4A136823F0F80300
:1013B800616943EAC1031360DDE7474B00221A6005
:1013C80000F06EFF0546434B1B6813F0020FD2D0A6
:1013D80000F066FF401B0228F5D9032001E1012037
:1013E800FFF704FF236813F0040F00F09780394BD0
:1013F800DB6913F0805F33D1364BDA6942F08052F3
:10140800DA61DB6903F080530193019B0125344BBA
:101418001B6813F4807F25D0E368012B36D0002B9E
:101428004CD103F1804303F504331A6A22F0010218
:101438001A621A6A22F004021A622CE0274B002270
:101448001A6000F02DFF0546224B5B6A13F0020F6D
:10145800C8D000F025FF401B0228F5D90320C0E0C2
:101468000025D4E71E4A136843F48073136000F024
:1014780017FF06461A4B1B6813F4807FCCD100F087
:101488000FFF801B6428F5D90320AAE0114A136ACC
:1014980043F001031362E36873B300F001FF0646EB
:1014A8000C4B1B6A13F0020F37D100F0F9FE801BBA
:1014B80041F288339842F3D9032092E0052B11D0EA
:1014C800044B1A6A22F001021A621A6A22F0040214
:1014D8001A62E0E7001002400000424280044242E3
:1014E80000700040414B1A6A42F004021A621A6AFC
:1014F80042F001021A62CEE700F0D2FE06463B4BEC
:101508001B6A13F0020F08D000F0CAFE801B41F2DC
:1015180088339842F3D9032063E0E5B9E369002BE7
:101528005ED0324A526802F00C02082A5BD0022BC5
:1015380017D02F4B00221A6000F0B2FE04462B4B46
:101548001B6813F0007F47D000F0AAFE001B02289A
:10155800F5D9032045E0254AD36923F08053D361A8
:10156800DCE7234B00221A6000F09AFE05461F4B69
:101578001B6813F0007F06D000F092FE401B022883
:10158800F5D903202DE0236AB3F5803F1AD0174917
:101598004B6823F47413226A606A024313434B6056
:1015A800134B01221A6000F07BFE04460F4B1B68A8
:1015B80013F0007F0ED100F073FE001B0228F5D94E
:1015C80003200EE0094A536823F40033A1680B4353
:1015D8005360DCE7002004E0002002E0012000E086
:1015E800002002B070BD0120FBE700BF00100240E0
:1015F8006000424210B487B0164C94E80F000DF119
:10160800180C0CE90F00238AADF80430124B5B6804
:1016180003F00C02082A1AD1C3F38342624412F879
:10162800100C13F4803F05D10C4B03FB00F007B0FE
:1016380010BC7047084B5B68C3F34043634413F81E
:10164800142C074BB3FBF2F300FB03F0EFE704485D
:10165800EDE700BFE06D00080010024000093D0002
:1016680000127A00594B1B6803F007038B420CD217
:10167800564A136823F007030B431360136803F0FB
:1016880007038B4201D00120704770B5036813F03F
:10169800020F06D04E4A536823F0F00384682343B0
:1016A80053600C460546036813F0010F52D0436897
:1016B800012B23D0022B28D0454A126812F0020FC2
:1016C80000F0828042494A6822F0030213434B60CB
:1016D80000F0E6FD06466B68012B1DD0022B2AD0D0
:1016E8003B4B5B6813F00C0F34D000F0D9FD801B26
:1016F80041F288339842F3D9032064E0344A1268EF
:1017080012F4003FDED101205DE0314A126812F088
:10171800007FD7D1012056E02D4B5B6803F00C0306
:10172800042B17D000F0BCFD801B41F2883398428F
:10173800F2D9032047E0264B5B6803F00C03082B23
:1017480008D000F0ADFD801B41F288339842F2D9F1
:10175800032038E01D4B1B6803F00703A3420CD994
:101768001A4A136823F0070323431360136803F02E
:101778000703A34201D0012025E02B6813F0040FD2
:1017880006D0134A536823F4E063E9680B435360B7
:101798002B6813F0080F07D00D4A536823F46053E1
:1017A800296943EAC1035360FFF724FF084B5B68CC
:1017B800C3F30313074AD35CD840074B18600020D3
:1017C80000F03EFD002070BD0120FCE70020024033
:1017D80000100240F46D000800000020014B18685A
:1017E800704700BF0000002008B5FFF7F7FF044B63
:1017F8005B68C3F30223034AD35CD84008BD00BF2B
:1018080000100240046E000808B5FFF7E7FF044B1C
:101818005B68C3F3C223034AD35CD84008BD00BF4A
:1018280000100240046E000830B4036A23F001037C
:101838000362056A4268846924F073040B681C43D8
:1018480025F002058B682B43104DA84203D005F5FF
:101858000065A84205D123F00803CD682B4323F087
:1018680004030A4DA84203D005F50065A84205D136
:1018780022F440724D6915438A692A4342608461A3
:101888004A684263036230BC704700BF002C0140C5
:1018980030B4036A23F480730362036A4268C4693C
:1018A80024F073040D682C4323F400738D6843EA15
:1018B8000523124DA84203D005F50065A84206D1BC
:1018C80023F40063CD6843EA052323F480630B4DBA
:1018D800A84203D005F50065A84207D122F440527A
:1018E8004D6942EA05128D6942EA05124260C461F7
:1018F8004A68C263036230BC704700BF002C0140D5
:1019080030B4036A23F480530362036A4468C269EB
:1019180022F4E6420D6842EA052223F400538D685A
:1019280043EA0533094DA84203D005F50065A842EE
:1019380004D124F480444D6944EA85144460C261AA
:101948004A680264036230BC704700BF002C014043
:1019580010B4036A046A24F001040462846924F060
:10196800F00444EA021223F00A030B438261036283
:1019780010BC704710B4036A23F010030362846933
:10198800036A24F4704444EA023223F0A00343EAD1
:1019980001138261036210BC704710B4846824F498
:1019A8007F4442EA03230B432343836010BC704700
:1019B80010B50468A26822F070024B68134323F044
:1019C80007030A681343A3604B68502B1ED00AD93B
:1019D800602B21D0702B05D10B698A68C968006813
:1019E800FFF7DBFF10BD402BFCD103681C6A1A6AA5
:1019F80022F001021A620268936923F0F003096970
:101A080043EA0113936103681C62EBE70A6989687A
:101A18000068FFF79DFFE5E70A6989680068FFF736
:101A2800A9FFDFE7704738B590F83C30012B18D094
:101A38000446012580F83C50022380F83D30FFF72A
:101A4800B7FF2268D36823F04003D3602268D368C5
:101A580023F48043D36084F83D50002084F83C0090
:101A680038BD0220FCE700000368244A904212D0E7
:101A780002F5006290420ED0B0F1804F0BD0A2F573
:101A88009832904207D002F58062904203D002F566
:101A98008062904203D123F070034A681343174AC7
:101AA800904212D002F5006290420ED0B0F1804F01
:101AB8000BD0A2F59832904207D002F5806290428E
:101AC80003D002F58062904203D123F44073CA68C0
:101AD800134323F080034A69134303608B68C3628E
:101AE8000B688362054B984203D003F50063984264
:101AF80001D10B690363012343617047002C014046
:101B0800A8B110B5044690F83D305BB1022384F8C3
:101B18003D30211D2068FFF7A7FF012384F83D30E1
:101B2800002010BD80F83C30FFF77CFFEEE7012075
:101B38007047000030B4036A23F010030362036A9D
:101B48004468826922F4E6420D6842EA052223F0DD
:101B580020038D6843EA0513114DA84203D005F50B
:101B68000065A84206D123F08003CD6843EA051337
:101B780023F040030A4DA84203D005F50065A842AA
:101B880007D124F440644D6944EA85048D6944EA28
:101B98008504446082614A688263036230BC70478E
:101BA800002C014038B590F83C30012B66D00D462A
:101BB8000446012380F83C30022380F83D300C2A8B
:101BC8001AD8DFE802F00719191920191919341958
:101BD800191947000068FFF727FE2268936943F048
:101BE800080393612268936923F0040393612268D0
:101BF800936929690B439361012384F83D300020E0
:101C080084F83C0038BD0068FFF794FF22689369A8
:101C180043F4006393612268936923F480639361BA
:101C280022689369296943EA01239361E4E700681C
:101C3800FFF72EFE2268D36943F00803D3612268B8
:101C4800D36923F00403D3612268D36929690B435C
:101C5800D361D1E70068FFF753FE2268D36943F4E4
:101C68000063D3612268D36923F48063D361226857
:101C7800D369296943EA0123D361BDE70220C1E79B
:101C880010B4012303FA01F4036A23EA040303628C
:101C9800036A8A401343036210BC704710B50446B8
:101CA80001220068FFF7ECFF2368094A934203D03A
:101CB80002F50062934203D15A6C42F400425A641E
:101CC8002268136843F001031360002010BD00BFB1
:101CD800002C014010B4042303FA01F4036A23EA38
:101CE80004030362036A8A401343036210BC70470B
:101CF80010B5044604220068FFF7ECFF2268536C15
:101D080043F4004353642268136843F001031360EB
:101D1800002010BD90F83C30012B25D0012380F81D
:101D28003C30CB6823F440738A68134323F4806300
:101D38004A68134323F400630A68134323F4805367
:101D48000A69134323F400534A69134323F4804375
:101D58008A69134323F4004313430268536400233E
:101D680080F83C30184670470220704790F83C30A5
:101D7800012B22D030B4012280F83C20022380F8C5
:101D88003D300468636823F0700363600468636827
:101D98000D682B4363600468A36823F08003A36085
:101DA8000468A36849680B43A36080F83D200023BA
:101DB80080F83C30184630BC70470220704700005D
:101DC800034690F82420012A20D0012280F82420FC
:101DD8000268906810F0010F07D10D48806810F074
:101DE800010F02D10B48824208D09A6A42F02002C1
:101DF8009A620120002283F824207047506820F45A
:101E080070200968014351600020F3E70220704701
:101E18000028014000240140074AD36823F4E06306
:101E28001B041B0C000200F4E060184340F0BF6084
:101E380040F40030D060704700ED00E030B4174B3C
:101E4800DB68C3F30223C3F10704042C28BF04246E
:101E58001D1D062D18D9033B4FF0FF3505FA04F474
:101E680021EA0401994005FA03F322EA030319431E
:101E780000280BDB0901C9B200F1604000F56140A0
:101E880080F8001330BC70470023E5E700F00F002E
:101E98000901C9B2024B1954F4E700BF00ED00E094
:101EA80014ED00E000F01F02400901239340024AAC
:101EB80042F82030704700BF00E100E00138B0F17F
:101EC800807F0AD2064B5860064AF02182F8231018
:101ED8000020986007221A6070470120704700BFF1
:101EE80010E000E000ED00E0042805D0054A136882
:101EF80023F0040313607047024A136843F0040395
:101F08001360704710E000E0704708B5FFF7FCFF6A
:101F180008BD0000F0B482B000263546ABE0002CC6
:101F280063D0012C00D1CE68FF2B72D88446FF2BDA
:101F380072D8AC00DCF800200F27A74022EA07027D
:101F480006FA04F42243CCF800204A6812F0805FB5
:101F580000F09080654A946944F0010494619269A4
:101F680002F001020192019AAC08A71C604A52F8DB
:101F780027C005F0030297000F22BA402CEA020C92
:101F88005C4A90424ED002F58062904200F08B800D
:101F980002F58062904200F0888002F580629042EB
:101FA80000F0858002F58062904200F0828002F5A0
:101FB8008062904234D0062235E04F4FBC4214D0A4
:101FC8000BD94E4FBC4210D007F58037BC420CD01D
:101FD800A7F58017BC42A7D107E0A7F58017BC4238
:101FE80003D007F58037BC429ED18C687CB1012CA8
:101FF80008D04261082697E7CE68083694E7CE688D
:102008000C3691E7026108268EE700268CE7042645
:102018008AE700F1040C8AE7A5F10804A40089E71F
:10202800052200E00022BA4042EA0C020234304F96
:1020380047F824204A6812F4803F3CD0304C22688C
:102048001A4322604A6812F4003F3AD02C4C626866
:102058001A4362604A6812F4801F38D0284CA2687C
:102068001A43A2604A6812F4001F36D0244CE26872
:102078001343E36001350F2D35D80122AA400B68C0
:1020880013409A42F6D14C68122CB8D095D8022C3D
:10209800B2D07FF644AF032CB7D0112C7FF444AFF5
:1020A800CE68043640E70122BDE70222BBE70322DF
:1020B800B9E70422B7E7124C226822EA0302226039
:1020C800C0E70F4C626822EA03026260C2E70C4C68
:1020D800A26822EA0302A260C4E7094CE26822EA85
:1020E8000303E360C6E702B0F0BC7047001002408B
:1020F80000000140000801400000211000003110DC
:10210800000401408368194201D100207047012072
:10211800704712B909040161704701617047C368CB
:102128005940C1607047000070B582B0044603682A
:1021380013F0010F34D03E4BDB6913F0805F48D1B8
:102148003B4BDA6942F08052DA61DB6903F0805375
:102158000193019B0125374B1B6813F4807F3AD00C
:10216800334B1B6A13F4407311D0626802F4407257
:102178009A420CD02E4A136A23F440702E49012645
:102188000E6000260E60106213F0010F37D1284A46
:10219800136A23F4407361680B431362002D3FD127
:1021A800236813F0020F06D0214A536823F44043F2
:1021B800A1680B435360236813F0100F35D01C4AF5
:1021C800536823F4800361690B435360002002B015
:1021D80070BD0025BFE7174A136843F48073136086
:1021E80000F05EF80646134B1B6813F4807FB7D1E6
:1021F80000F056F8801B6428F5D90320E7E700F0C3
:102208004FF806460A4B1B6A13F0020FBFD100F0C5
:1022180047F8801B41F288339842F3D90320D6E768
:10222800D36923F08053D361BAE70020CFE700BF1A
:102238000010024000700040400442427047000015
:1022480010B50446074B1868074BA3FB00308009FC
:10225800FFF734FE002221464FF0FF30FFF7EEFD76
:10226800002010BD00000020D34D621008B5074AB9
:10227800136843F0100313600320FFF7CDFD00201F
:10228800FFF7DEFFFFF7DAFF002008BD002002405D
:10229800024A136801331360704700BF74020020BC
:1022A800014B1868704700BF7402002030B583B036
:1022B8000190FFF7F5FF0546019CB4F1FF3F00D000
:1022C8000134FFF7EDFF401BA042FAD303B030BD45
:1022D8007047000030B482B00023019390F8243096
:1022E800012B00F08B800246012380F824304B68D4
:1022F800062B29D80568686B03EB8303053B1F246D
:102308009C4020EA04000C6804FA03F303436B635F
:102318000B68092B38D91568E86803EB43031E3BA3
:1023280007249C4020EA04008C6804FA03F3034362
:10233800EB600B68103B012B34D90020002382F896
:10234800243002B030BC70470C2B0ED80568286BBF
:1023580003EB8303233B1F249C4020EA04000C6802
:1023680004FA03F303432B63D2E70568E86A03EB37
:102378008303413B1F249C4020EA04000C6804FAB4
:1023880003F30343EB62C3E71568286903EB4303D0
:1023980007249C4020EA04008C6804FA03F30343F2
:1023A8002B61C6E713681648834205D0936A43F049
:1023B800200393620120C1E7986810F4000F1BD135
:1023C800986840F4000098600B68102B01D000203A
:1023D800B4E70C4B1B680C49A1FB03139B0C03EBE4
:1023E80083035900019102E0019B013B0193019B8A
:1023F800002BF9D10020A1E700209FE70220A0E7E9
:10240800002401400000002083DE1B4330B583B068
:102418000023019303689A6812F0010F2ED19A687D
:1024280042F001029A60174B1B68174AA2FB03236C
:102438009B0C019302E0019B013B0193019B002B44
:10244800F9D10446FFF72CFF054623689B6813F073
:10245800010F11D1FFF724FF401B0228F5D9A36A09
:1024680043F01003A362E36A43F00103E36200232D
:1024780084F82430012002E0002000E0002003B0AE
:1024880030BD00BF0000002083DE1B4390F82430DD
:10249800012B6AD010B50446012380F82430FFF7D9
:1024A800B5FF024600285BD1A36A23F4407323F0EA
:1024B800010343F48073A36223682D498B4227D01C
:1024C800A16A21F48011A162596811F4806F05D0C6
:1024D800A16A21F4405141F48051A162A16A11F42A
:1024E800805F2BD0E16A21F00601E162002184F8C7
:1024F80024106FF0020119602368996801F46021C3
:10250800B1F5602F1DD0996841F4801199602AE0D7
:10251800A1F58061496811F4702FD1D0A16A41F406
:102528008011A1621349496811F4806FD6D0A16A5D
:1025380021F4405141F48051A162CFE70021E162CA
:10254800D4E70B498B4204D0996841F4A001996003
:1025580009E0A1F58061496811F4702FD3D1F3E740
:10256800002384F82430104610BD0222104670471C
:10257800002801400024014038B503689A6812F029
:10258800010F01D1002038BD04469A6822F00102EB
:102598009A60FFF785FE054623689B6813F0010FD4
:1025A8000ED0FFF77DFE401B0228F5D9A36A43F041
:1025B8001003A362E36A43F00103E3620120E2E748
:1025C8000020E0E7002800F08A8070B50446836A9E
:1025D800002B36D02046FFF7CFFFA36A13F0100375
:1025E80077D1002875D1A26A22F4885222F002021B
:1025F80042F00202A262626825683A498D4226D0FA
:10260800E1690A43E66842EA4602A168B1F5807FBB
:1026180027D0012922D06169012925D0696821F4D0
:1026280069410B436B6021688D682F4B2B40134326
:102638008B60A368B3F5807F27D0012B25D00021BC
:1026480026E0C36280F82430FFF742FEC2E7E16962
:10265800B1F5402FD5D14FF40021D2E74FF4807364
:10266800D9E74FF48073D6E736B9A169013943EA4F
:10267800413343F40063D1E7A16A41F02001A1622C
:10268800E16A41F00101E162C8E72369013B1905EC
:102698002568EB6A23F470030B43EB62236899689F
:1026A800124B0B409A420BD0A36A23F0120343F05B
:1026B8001003A362E36A43F00103E36201200DE023
:1026C8000023E362A36A23F0030343F00103A36238
:1026D80004E0A36A43F01003A362012070BD012047
:1026E800704700BF003C0140FDF7E1FFFE0E1FFFF1
:1026F8002DE9F84305460268136923F44053C1687D
:102708000B431361836802691343426913430168E9
:10271800CA6822F4B05222F00C021343CB6002685C
:10272800536923F4407381690B4353610268594B21
:102738009A4257D0FFF758F800EB800000EB800072
:102748006C68A400B0FBF4F4534FA7FB043464098D
:102758002601FFF749F800EB800000EB80006C6869
:10276800A400B0FBF4F9FFF73FF800EB800000EBA2
:1027780080006C68A400B0FBF4F4A7FB043464097F
:102788004FF0640808FB149424013234A7FB043486
:10279800640904F0F0043444FFF726F800EB8000E5
:1027A80000EB80006E68B600B0FBF6F6FFF71CF889
:1027B80000EB800000EB80006B689B00B0FBF3F03F
:1027C800A7FB0030400908FB10684FEA081808F119
:1027D8003208A7FB0837C7F343172B6827449F60C5
:1027E800BDE8F883FFF710F800EB800000EB8000ED
:1027F8006C68A400B0FBF4F4274FA7FB0434640909
:102808002601FFF701F800EB800000EB80006C6800
:10281800A400B0FBF4F9FEF7F7FF00EB800000EB33
:1028280080006C68A400B0FBF4F4A7FB04346409CE
:102838004FF0640808FB149424013234A7FB0434D5
:10284800640904F0F0043444FEF7DEFF00EB800076
:1028580000EB80006E68B600B0FBF6F6FEF7D4FF1A
:1028680000EB800000EB80006B689B00B0FBF3F08E
:10287800A7FB0030400908FB10684FEA081808F168
:102888003208A7FB0837C7F343172B6827449F6014
:10289800A6E700BF003801401F85EB51704758B3C9
:1028A80010B5044690F839300BB3242384F8393036
:1028B8002268D36823F40053D3602046FFF718FF3B
:1028C8002268136923F4904313612268536923F043
:1028D8002A0353612268D36843F40053D36000206D
:1028E800E063202384F8393084F83A3010BD80F84A
:1028F8003830FFF7D3FFD8E7012070470F4B1A682D
:1029080042F001021A6059680D4A0A405A601A6872
:1029180022F0847222F480321A601A6822F480222B
:102928001A605A6822F4FE025A604FF41F029A6035
:10293800044B4FF000629A60704700BF00100240DD
:102948000000FFF800ED00E030B597B01F4BDA69E2
:1029580042F48022DA61DA6902F480220092009A55
:102968005A6942F001025A615B6903F0010301935D
:10297800019B174D06954FF41643079300240894BE
:1029880009940A9408230B930C940D9406A8FFF756
:1029980086FF6B6943F080036B614FF48063029399
:1029A80001230493022303930323059302A90948EF
:1029B800FFF7B0FA084B1C60084A9A605C609022E6
:1029C8001A601C3B70225A6017B030BD00100240DC
:1029D80000480040000C01401C0002400448004030
:1029E8002DE9F04F89B07B4B9A6942F004029A6155
:1029F8009A6902F004020192019A9A6942F0080267
:102A08009A619A6902F008020292029A9A6942F05F
:102A180010029A619B6903F010030393039B002340
:102A280005930693022707974FF0200A0DEB0A0437
:102A380044F810AD21466848FFF76CFA4023049328
:102A480021466548FFF766FA8025049521466248C5
:102A5800FFF760FA4FF48063049321465F48FFF75D
:102A680059FA4FF40063049321465C48FFF752FA81
:102A78004FF48056049621465848FFF74BFA0496BF
:102A880021465748FFF746FA049721465448FFF76E
:102A980041FA4FF00108CDF814804FF00409CDF841
:102AA800109021464C48FFF735FA10260496214627
:102AB8004B48FFF72FFACDF810A021464848FFF7FA
:102AC80029FA03230593CDF8108021464348FFF7E0
:102AD80021FACDF8108021464148FFF71BFA4FF044
:102AE800080BCDF810B021463C48FFF713FA0497BD
:102AF80021463A48FFF70EFA049621463748FFF771
:102B080009FACDF810A021463448FFF703FACDF8AA
:102B1800109021463148FFF7FDF9CDF810B0214655
:102B28002F48FFF7F7F9CDF8109021462C48FFF70A
:102B3800F1F905974023049321462848FFF7EAF95D
:102B4800049521462548FFF7E5F94FF48079CDF83B
:102B5800109021462148FFF7DDF9049521462048C9
:102B6800FFF7D8F9CDF8108021461B48FFF7D2F9B6
:102B7800049721461848FFF7CDF9CDF81090214663
:102B88001748FFF7C7F94FF4007304932146144818
:102B9800FFF7C0F94FF48063049321461048FFF70C
:102BA800B9F94FF40053049321460B48FFF7B2F9E3
:102BB8004FF48043049321460748FFF7ABF94FF4DD
:102BC8000043049321460448FFF7A4F909B0BDE87F
:102BD800F08F00BF00100240000C014000100140BF
:102BE800000801402DE9F04F99B0754B9A6942F4FD
:102BF80000629A619A6902F400620192019A9A69E4
:102C080042F400529A619B6903F400530293029BB9
:102C18006C4EDFF8B891C6F80090002474604FF04D
:102C28002008C6F808804FF4FA6BC6F80CB0346177
:102C38007461B4613046FEF763FF1023169317944E
:102C480016A93046FFF792F860230F931094119459
:102C580008271297139414944FF40073159322467F
:102C68000FA93046FEF79EFF04220FA93046FEF753
:102C780099FF3A460FA93046FEF794FF4FF40063D8
:102C880008934FF4806309930A94CDF82C800C9430
:102C98000D940E940DEB08013046FFF73BF84A4DB2
:102CA800DFF82CA1C5F800A06C60C5F80880C5F84D
:102CB8000CB02C616C61AC612846FEF721FFCDF8A1
:102CC80058808023179316A92846FFF74FF80494D5
:102CD80018A9052341F8543D2846FEF7A4FE6023B1
:102CE8000F93109411941297139414944FF4007343
:102CF800159322460FA92846FEF754FF04220FA970
:102D08002846FEF74FFF3A460FA92846FEF74AFF26
:102D18004FF4006308934FF4806309930A94CDF845
:102D28002C800C940D940E940DEB08012846FEF7A8
:102D3800F1FFDAF8443023F40043CAF84430D9F8F4
:102D4800443023F40043C9F8443021462846FEF7AE
:102D5800A5FF04212846FEF7A1FF39462846FEF7BD
:102D68009DFF21462846FEF7C3FF04212846FEF7AB
:102D7800BFFF39462846FEF7BBFF21463046FEF71F
:102D88008DFF04213046FEF789FF39463046FEF7AD
:102D980085FF21463046FEF7ABFF04213046FEF79B
:102DA800A7FF39463046FEF7A3FF2B6801221A63B6
:102DB8003268136843F00103136019B0BDE8F08F5F
:102DC8000010024040030020D0040020002C0140E5
:102DD800003401402DE9F04186B0424EB36943F416
:102DE8000073B361B36903F400730093009B3E4C16
:102DF8003E4B23604FF48073A3600025E560656156
:102E08004FF44023E36165604FF00508C4F8108073
:102E18002046FFF7D7FB364A536843F480235360B4
:102E280006A94FF4C02341F8043D2046FEF7C8FF29
:102E3800012304930E220292039302A92046FFF76E
:102E480049FA02950227039702A92046FFF742FA9A
:102E580004970B2702970323039302A92046FFF741
:102E680039FA0C2302930423039302A92046FFF79F
:102E780031FA0723049310230293CDF80C8002A99A
:102E88002046FFF727FA2268936843F4000343F4C7
:102E980080739360936843F001039360736943F010
:102EA80001037361736903F001030193019B114BE3
:102EB8001D60C3F80480104A9A60104ADA6040F630
:102EC800A2221A601A6842F001021A602A462946AC
:102ED8003846FEF7B3FF3846FEF7E4FF06B0BDE814
:102EE800F08100BF001002400804002000240140C7
:102EF80000000140080002404C2401407C040020EE
:102F0800F0B585B0284B9A6942F480629A619B6952
:102F180003F480630093009B244C254B23604FF4FB
:102F28008073A3600023E36063614FF46022E26171
:102F38006360052626612046FFF744FB01230393BF
:102F48000F220192029301A92046FFF7C3F90D232E
:102F580001930225029501A92046FFF7BBF90395C5
:102F68000A2301930327029701A92046FFF7B2F924
:102F78000195042302930DEB03012046FFF7AAF9FC
:102F8800072303930197029601A92046FFF7A2F9A8
:102F980023689A6842F480729A609A6842F0010243
:102FA8009A6005B0F0BD00BF00100240BC020020CE
:102FB8000028014070B5064600240CE0074D0223A6
:102FC8002B706420FFF772F900232B70C820FFF7DD
:102FD8006DF90134E4B2B442F0D370BD3802002078
:102FE80010B5144B1C682046FDF7C0FE0021FEF703
:102FF800AFF858B16442132CCCBF00240124C4B1EB
:1030080000240D4B1C700D4B1C700AE0132CCCBF18
:1030180000240124F3E70A4B1C706420FFF746F9EB
:103028000134072CF7DD002220210648FFF771F84C
:10303800FEE710BD2C0500203C02002048020020BD
:10304800380200200008014030B597B002250C95E1
:1030580001231093102311931395002414944FF413
:10306800601315930CA8FEF7D7F80F23079308955C
:1030780009944FF480630A930B94294607A8FEF736
:10308800F1FA01954FF44043039301A8FFF74CF878
:10309800FEF7A4FB084BA3FB00308009FEF70EFFE8
:1030A8000420FEF721FF224621464FF0FF30FEF7AD
:1030B800C5FE17B030BD00BFD34D62100000000040
:1030C8002DE9F04387B0FFF7D1F8A74CA36943F087
:1030D8000103A361A36903F001030593059B032082
:1030E800FEF79AFE002211466FF00B00FEF7A6FECF
:1030F800002211466FF00A00FEF7A0FE00221146DA
:103108006FF00900FEF79AFE002211466FF00400E6
:10311800FEF794FE002211466FF00300FEF78EFEC4
:10312800002211466FF00100FEF788FE00221146CA
:103138004FF0FF30FEF782FEFFF786FF636923F04A
:1031480001036361FFF74CFCFFF74CFDFFF742FEFC
:10315800FFF7D6FEFFF7F8FB012220218348FEF790
:10316800D8FF8348FFF792F98248FFF78FF90824C0
:1031780005E0814B1C706420FFF798F8013C002C97
:10318800F7DA7D4B00221A70012204217B48FEF7F2
:10319800C0FF0A2001F0B6FC794801F023FD794907
:1031A800794801F097FC7949794801F093FC0A20A5
:1031B80001F0A8FC6AA5D5E90045CDE902455A23E6
:1031C800009322462B468221724801F083FCCDE908
:1031D8000245BE23009322462B464FF48C716E485D
:1031E80001F078FCCDE90245F023009322462B46F6
:1031F8004FF40771694801F06DFCCDE902454FF4C1
:103208009676009622462B464FF47A71644801F070
:1032180061FC0A2001F076FC624B5C8A24B2DD89ED
:103228002DB23046FFF742F82846FDF79FFD0546C8
:103238005D49FDF7ABFFA8B12046FDF797FD5B4957
:10324800FDF7A4FF70B10420594B1870FFF7B2FEC8
:10325800574B93F90010574801F03CFC564801F0D1
:10326800C1FC20E050492846FDF790FF60B9204690
:10327800FDF77CFD4D49FDF789FF58B101204C4B06
:103288001870FFF797FEE3E70320494B1870FFF724
:1032980091FEDDE70220464B1870FFF78BFED7E75B
:1032A8006420FFF703F83F4BD889FDF75FFD3E49DF
:1032B800FDF76CFF0028F3D13A4B588AFDF756FD0D
:1032C8003A49FDF763FF0028EAD13C4801F08AFC3F
:1032D8003B4B01221A703B4801F084FC1420FEF796
:1032E800E5FF304B188AFDF73DFD0546C4E2002195
:1032F8003046FDF72DFF002800F0FA820026F7E29D
:1033080000213046FDF724FF002800F00483002642
:1033180001E36442042CCCBF0024012427E32A489B
:1033280001F060FC002415E0134E062333703220B0
:10333800FEF7BCFF002737703220FEF7B7FF0823DF
:1033480033703220FEF7B2FF37703220FEF7AEFF3F
:103358000134E4B2052CE7D9FFF742FE0AE300BFC7
:10336800000000A09999E93F0010024000080140C0
:1033780008040020BC02002038020020000C014094
:103388000C6E0008446E0008886E00089C6E0008E9
:10339800A86E0008BC6E0008286F0008946F00082B
:1033A800007000087C040020000019459A19204587
:1033B800200200206C7000087870000898700008DF
:1033C80048020020AC700008D47000088A4B1C68C2
:1033D80000212046FDF7DAFE00282DD08749204637
:1033E800FDF718FD04468649864B1868FDF712FD5F
:1033F8008549FDF70FFD01462046FDF703FC04460D
:103408007F49824B1868FDF705FD7F49FDF702FDEE
:1034180001462046FDF7F4FB774B1860764B186899
:10342800FDF7BEFE00B2B0F57A7F00F38980784BD5
:103438009842B8BF184685E07649D0E76E4B1C68BD
:1034480000212046FDF7A2FE00B373492046FDF790
:10345800E1FC04466A496B4B1868FDF7DBFC6A49D6
:10346800FDF7D8FC01462046FDF7CCFB044664492D
:10347800664B1868FDF7CEFC6349FDF7CBFC0146A7
:103488002046FDF7BDFB5C4B1860C7E76349DDE7E5
:10349800594B1C6800212046FDF778FE00B36049AF
:1034A8002046FDF7B7FC04465549564B1868FDF70A
:1034B800B1FC5549FDF7AEFC01462046FDF7A2FBDD
:1034C80004464F49514B1868FDF7A4FC4E49FDF7D7
:1034D800A1FC01462046FDF793FB474B18609DE78A
:1034E8005049DDE7504988E200214846FDF74EFE85
:1034F80020B34E494846FDF78DFC044640493846FE
:10350800FDF788FC4049FDF785FC01462046FDF79C
:1035180079FB04463A494046FDF77CFC3A49FDF7F9
:1035280079FC01462046FDF76BFB334B1860404C95
:1035380040492068FDF76EFC206078E23A49D9E7F7
:103548004FF47A703C4B18603C4B18603C4B186049
:103558003C4B1B6803F13202824214DD323B83424A
:1035680011DA394B1B6803F1320282420BDD323B20
:10357800834208DA354B1B68042B04D8344B186097
:103588004342344A13602F4B18602F4B1860324B5C
:103598001968324BA3FB01231B09C3EB03135A0021
:1035A800914269D002212E48FEF7ACFD38B12D4B6F
:1035B8001B6823B92C4B1B68002B00F0C6802B4BD3
:1035C8001C682B492046FDF7C3FD002800F0D38076
:1035D8001B4B1E683046FDF7C9FB0021FDF7B8FDFF
:1035E800002840F0C480132E00F3C580214801F064
:1035F800F9FAFFF7F5FCDAE034020020821F783F81
:10360800CDCC4C3F180200200000A0401C02002036
:1036180018FCFFFF4A9F743FC5577C3F4B9C7A3F7D
:103628008C1A7E3FBCBB7B3F30967C3FDBF97E3FEC
:10363800100500203333733F2C0200203002002095
:103648002C0500202402002028020020040000206D
:103658005C02002058020020140500208988888810
:1036680000080140640200206002002010000020D1
:103678008FC22142507100085F492846FDF7CAFBF6
:1036880005465E4C208AFDF76DFB5D49FDF7C2FBE0
:1036980001462846FDF7B6FA05465A49FDF7B0FA3D
:1036A8005949FDF7B7FB5949FDF7ACFA0646584B9F
:1036B8001868FDF775FD01B2002000F0E9FC554BD4
:1036C8001868FDF76DFD01B2012000F0E1FC524BD6
:1036D8001868FCF711FF02460B46022000F0DEFCDA
:1036E8004E4B1868FCF708FF02460B46032000F013
:1036F800D5FC4B4BB3F90010042000F0C9FC494B32
:10370800196809B2052000F0C3FCA18909B2062096
:1037180000F0BEFC444B1868FCF7EEFE02460B4670
:10372800072000F0BBFC2846FDF73AFD01B208204F
:1037380000F0AEFC3046FCF7DFFE02460B460920DF
:1037480000F0ACFC00F0B6FC2CE7384B00221A70F5
:10375800374801F047FA02213648FEF7D3FC002823
:10376800F9D1354801F03EFAFFF73AFC27E77642EF
:10377800132E7FF73BAF31492046FDF7E9FC58B1DE
:103788002F492046FDF702FD30B12E4B05221A7055
:103798002D4B06221A700AE0214B1B6813F1320FD9
:1037A80023DA284B05221A70274B01221A70274B5F
:1037B8001C682046FDF7DAFA0021FDF7C9FC00284D
:1037C8004AD1322C4BDC224B1C682046FDF7CEFA3E
:1037D8000021FDF7BDFC002840F03281322C3EDC90
:1037E8001C4A1368013313603CE00023154A137028
:1037F800154A1370DBE700BFA4707D3F7C040020EE
:103808000AD7233C00E0CE44083748BE33330F4282
:10381800080000200C000020180200201C020020D4
:103828002C05002060020020100000204802002023
:1038380004710008000801403071000800002842A7
:103848008FC22142380200203C0200202C020020B6
:1038580030020020140500206442322CB3DD7B4B7B
:1038680000221A60794B1A68794B9A4204D9794830
:1038780001F0B8F9FFF7B4FB0220FEF717FD764B0D
:1038880000221A60754E76493068FDF7C3FA07467C
:10389800744CE089FDF766FA7349FDF7BBFA0146F7
:1038A8003846FDF7AFF907463060704E6C4930680E
:1038B800FDF7B0FA8046608AFDF754FA6A49FDF7C9
:1038C800A9FA01464046FDF79DF90446306068496B
:1038D8003846FDF795F96749FDF750FB06464FF066
:1038E8007E51FDF753FC00283FF401AD4FF07E56A2
:1038F800614B1E605E492046FDF782F95F49FDF77E
:103908003DFB06464FF07E51FDF740FC00283FF492
:10391800F7AC4FF07E565A4B1E605A493846FDF7B1
:1039280017FC70B958493846FDF730FC48B9554975
:103938002046FDF70DFC20B953492046FDF726FC2B
:10394800C0B100264E4B1E604B4B1E604F4B186893
:10395800FDF726FC0446FDF709FA3146FDF7F8FBAA
:1039680000287FF4D6AC042CCCBF00240124002C02
:103978007FF4D5AC464B93F90030012B3FF426ADCC
:10398800022B3FF45BAD032B3FF482AD042B7FF495
:1039980045AD394B1F683A4BD3F800804FF001040E
:1039A8003C493846FDF7F2FB08B94FF000044FF0E8
:1039B800010638494046FDF7E9FB08B94FF0000613
:1039C8003440E4B2314BD3F800904FF0010632494D
:1039D8004846FDF7DBFB08B94FF00006F6B2002CAD
:1039E8003FF482AD002E3FF47FAD00214846FDF73D
:1039F800CDFB00283FF476AD28494846FDF70AFA82
:103A0800044624493846FDF705FA2549FDF702FA28
:103A180001462046FDF7F6F81C4B1860214C224958
:103A28002068FDF7F7F92149FDF7ECF820601D4BF8
:103A38001868FDF7B5FB1E4B18601E4B1860EDE4C7
:103A48006442322C3FF70BAFCAE600BF14050020D2
:103A580000710200787100080400002008000020AE
:103A68006666663F7C040020CDCCCC3D0C0000206F
:103A7800000007450000B443180200200000FB4383
:103A88001C0200200000484200D07C45340200207F
:103A980020020020CDCC4C3F00002F44DBF97E3FB4
:103AA8000000A040100500203333733F0000A04100
:103AB800600200206402002005292ED8DFE801F00A
:103AC800030A11181F260021116018604042009B4C
:103AD800186070474142116018600023009A136013
:103AE80070474142116000221A60009B18607047BD
:103AF8000021116042421A60009B186070471060F4
:103B0800404218600023009A13607047106000223A
:103B18001A604042009B18607047002111601960CC
:103B2800009B19607047052812D8DFE800F00306EB
:103B3800080A0C0E8A1A1A607047196070471960D3
:103B480070471A6070471A607047521A1A607047B7
:103B580000221A6070470000624B02225A60624BD2
:103B68001B68B3F57A7F4BDBF0B58FB05F4B1A68F3
:103B78005F4BA3FB02139B094FF47A7101FB1323DC
:103B8800A3B95C4C5C492068FDF744F905465B4BDA
:103B98009889FDF7E7F85A49FDF73CF95949FDF7C7
:103BA80039F901462846FDF72DF82060534B58890E
:103BB800554B1C68001BFDF7D9F85449FDF72AF945
:103BC8000021FDF7C5FA00284FD14C4B5889001B3E
:103BD800FDF7CCF84D49FDF71DF94D49FDF7D6FA2B
:103BE80000284FD14B4B1B68052B4BD84A4B1B78F1
:103BF800002B47D0494A536C43F40043536446E0D2
:103C08000133394A13603D4A908845490B6803449B
:103C180003EBD3735B100B60D08842490B680344F5
:103C280003EBD3735B100B6010883F490B680344A8
:103C380003EBD3735B100B6050883C490B6803445B
:103C480003EBD3735B100B6050892F490B68034457
:103C580003EBD3735B100B601189354A13680B446F
:103C680003EBD3735B1013607047244B5889001B18
:103C7800FDF77CF82549FDF7CDF82E49FDF768FAE0
:103C88000028AFD0254A536C23F4004353641B4BE0
:103C98001889274B1C68001BFDF768F81B49FDF7BE
:103CA800B9F80021FDF754FA002847D1134B1889B9
:103CB800001BFDF75BF81549FDF7ACF81449FDF753
:103CC80065FA002847D1134B1B68052B43D8124BC4
:103CD8001B78002B3FD0184A536C43F400435364BD
:103CE8003EE000BF000002404C02002040020020DD
:103CF800D34D621010000020A4707D3F7C0400208A
:103D080017B9CE3C0AD7233C140000200AD7A33C9D
:103D180000007041040000204802002000340140E7
:103D28001C00002020000020240000202800002083
:103D380018000020000070C1002C0140A64B188913
:103D4800001BFDF713F8A549FDF764F8A449FDF732
:103D5800FFF90028B7D0A34A536C23F400435364F7
:103D6800A1498B6813F0200F0CBF012300238A6838
:103D780012F0400F0CBF01220022896811F0800F59
:103D88000CBF012500259949886810F4806F0CBF85
:103D9800012000208C6814F4006F0CBF012400245B
:103DA800896811F4805F02EB450203EB4203904EF1
:103DB800F35C90490B600B6803F102030B600D681C
:103DC8008D4B83FB0572A2EBE57202EB42024FEAD0
:103DD8004207A5EB07020A600CBF02220022224418
:103DE80000EB4202B05C854A106010680230106037
:103DF800106883FB0043A3EBE07303EB43035C0011
:103E0800031B13600868744B9C88DD887C4B1A6818
:103E18007C4B19687C4BAA1A611AFFF784FE7B4A0F
:103E28001368013313607A4A1468ACB1794AA2FB6B
:103E38000312120B784909680131B2FBF1F001FB5A
:103E480010224AB9B3FBF4F204FB12334BB9102128
:103E58007248FEF764F904E0002210216F48FEF76B
:103E680058F96F4C2068634B19680BAB00930CAB87
:103E78000DAAFFF721FE6B4B1868604B196808AB59
:103E8800009309AB0AAAFFF717FE2368002B40F33B
:103E98008D80654B1868574B19680531564B83FB65
:103EA8000123A3EBE17303EB43035C0005AB009331
:103EB80006AB07AA091BFFF7FFFD0D9B079A1344E2
:103EC8000D930C9B069A13440C930B9B059A134471
:103ED8000B93544B1B68002B40F3AC80534B186872
:103EE800464B19680531444B83FB0123A3EBE1736F
:103EF80003EB43035C0002AB009303AB04AA091B6A
:103F0800FFF7DAFD0A99049B1944099A039B1A449E
:103F18000898029B03440D9800F57A7040F2C67425
:103F2800A04200F39D800A28B8BF0A20404C606375
:103F38000C9800F57A7040F2C674A04200F39380A2
:103F48000A28B8BF0A203A4CA0630B9800F57A708B
:103F580040F2C674A04200F389800A28B8BF0A203C
:103F6800334CE06301F57A7140F2C670814200F388
:103F780080800A29B8BF0A211A48416302F57A727B
:103F880040F2C6718A4277DC0A2AB8BF0A2215496C
:103F98008A6303F57A7340F2C67293426FDC0A2B88
:103FA800B8BF0A230F4AD3630FB0F0BD1E4B186881
:103FB800104B19680131104B83FB0123A3EBE1730C
:103FC80003EB43035C0005AB009306AB07AA091B90
:103FD8004042FFF771FD70E77C0400200AD7A33C3C
:103FE800000070C1002C0140000C0140001001408D
:103FF8009871000850020020ABAAAA2A5402002097
:10400800200000201C000020440200204002002064
:10401800380200205917B7D13C020020000801409F
:10402800580200205C020020600200206402002088
:1040380000340140134B1868134B19680131134BB6
:1040480083FB0123A3EBE17303EB43035C0002ABA7
:10405800009303AB04AA091B4042FFF72DFD51E76B
:1040680040F2C67062E740F2C6706CE740F2C67074
:1040780076E740F2C6717FE740F2C67287E740F202
:10408800C6738FE76402002054020020ABAAAA2A54
:10409800014B23F8101070472806002010B504467D
:1040A80010461946FCF758FD014B43F8240010BD93
:1040B800000600202DE9F04794B0294C268836B236
:1040C80067883FB2274DA868FCF716FACDE90E01BC
:1040D800E868FCF711FACDE91001B4F808800FFA86
:1040E80088F8B4F80A900FFA89F9B4F80CA00FFA16
:1040F8008AFAE869FCF700FACDE91201248A24B2A9
:10410800686AFCF7F9F9CDE90C010A94DDE9123483
:10411800CDE90834CDF818A0CDF81490CDF810806A
:10412800DDE91034CDE90234DDE90E34CDE900349F
:104138003B4632460C490D4800F05CFD0C4B5B6871
:104148005BB90B4B1A6822F001021A605860074AE3
:10415800DA601A6842F001021A6014B0BDE8F0870C
:104168002806002000060020A0710008380500205D
:104178001C0002407047FEE7FEE7FEE7FEE77047D7
:104188007047704708B5FEF783F8FDF7BEFE08BD17
:10419800002103E00B4B5B58435004310A480B4B9A
:1041A80042189A42F6D30A4A02E0002342F8043B36
:1041B800084B9A42F9D3FEF7A1FB00F00FF8FEF77F
:1041C8007FFF7047F074000800000020FC01002009
:1041D800FC01002040060020FEE7000070B5002525
:1041E8000C4E0D4CA41BA410A54209D102F0E8FD09
:1041F80000250A4E0A4CA41BA410A54205D170BD87
:1042080056F8253098470135EEE756F82530984797
:104218000135F2E7E8740008E8740008E87400085B
:10422800EC74000803460244934200D1704703F837
:10423800011BF9E7002B2DE9F0471E46BBBF03F130
:1042480000431E4600232D2388B0149FDDE9121A6F
:1042580027F02007462F1446109D0B7004D0452FD9
:1042680000D10135022300E0032307AA049206AA1D
:10427800CDE902A2CDE900352246334600F028FEFA
:10428800472F804602D1119BDB0726D5462F08EB26
:10429800050911D198F80030302B0AD100220023EB
:1042A80020463146FCF7E8FB18B9C5F10105CAF804
:1042B8000050DAF8003099440022002320463146A5
:1042C800FCF7DAFB38B93022079B4B4505D2591C5D
:1042D80007911A70F8E7CDF81C904046079B159A8D
:1042E800A3EB0803136008B0BDE8F087F7B5002911
:1042F800B4BF2D232B230446B8BF4942092904F82B
:10430800022B437021DD0DF107031F460A2691FB9E
:10431800F6F506FB1511092D01F1300103F8011C12
:1043280003F1FF32294609DC3031023B02F8011C57
:10433800BB42224604D3101A03B0F0BD1346E6E789
:1043480013F8012B04F8012BF2E73023194483708A
:10435800021DC170EFE700002DE9F04F91B00C4647
:104368001A9F93461E46054601F0E0FC036818466E
:104378000993FBF755FF00230E933B680A90073318
:1043880023F0070303F1080294F81880D4F800A07A
:104398003A60D3E90023C4E91223D4E9127929F059
:1043A80000430B934FF0FF32A64B38460B99FCF7AE
:1043B80095FB68BB4FF0FF32A24B38460B99FCF7D0
:1043C8006FFB28BB0022002338464946FCF75EFBFA
:1043D80010B12D2384F843309B4F9C4BB8F1470F05
:1043E80098BF1F4603234FF0000923612AF00403F6
:1043F800236000965B460FAA2146284600F0E2F9A2
:10440800013040F090804FF0FF3011B0BDE8F08FE0
:104418003A464B4638464946FCF760FB10B18C4F8C
:104428008C4BDBE763684AF48062591C0DA80EA91F
:1044380040D1062363604FF0000C0DF13303CDE942
:10444800012363682260CDE9030800933A464B468E
:10445800CDE9051C2846FFF7EDFE08F0DF03472BE2
:10446800074609D10D9BD81C02DB6268934247DDE1
:10447800A8F102085FFA88F8B8F1650F0D9924D8F9
:104488000139424604F150000D91FFF72FFF0E9AB3
:1044980081461318012A236102DC2268D10701D55D
:1044A800013323619DF83330002BA2D02D2384F8EB
:1044B80043309EE7B8F1670F00F06E81B8F1470FFF
:1044C800B9D1002BB7D10123B4E7B8F1660F19D1E0
:1044D800002963680CDD216113B92268D20702D56F
:1044E80001330B4423610D9B4FF00009A365D9E705
:1044F80013B92268D00701D50233F3E70123F1E7A6
:104508004FF06708DDE90D32934205DB226823612D
:10451800D107E8D50133E5E7002BCCBF0123C3F170
:1045280002031344DEE723685A0507D423693A4691
:1045380059462846B047013029D164E7B8F1650FDC
:1045480040F2D780D4E9120100220023FCF794FA44
:1045580088B30123404A59462846B04701303FF402
:1045680052AFDDE90D239A4202DB2368D8070ED546
:10457800DDE9092359462846B04701303FF443AFE7
:10458800002704F11A080E9B013BBB4209DC236893
:104598009F0700F1FD80E0680F9B9842B8BF18465E
:1045A80033E70123424659462846B04701303FF4D5
:1045B8002AAF0137E7E70D9B002B2BDC0123264AA6
:1045C80059462846B04701303FF41DAF0D9B23B92B
:1045D8000E9B13B92368D907D9D5DDE909235946B4
:1045E8002846B04701303FF40EAF4FF0000804F101
:1045F8001A090D9B5B42434501DC0E9B97E701239B
:104608004A4659462846B04701303FF4FCAE08F107
:104618000108EEE70E9AA36D9A42A8BF1A46002A2F
:10462800904607DD134659463A462846B0470130BA
:104638003FF4E9AE04F11A034FF0000A28EAE878DB
:104648000B9315E0FFFFEF7F307200082C72000813
:1046580038720008347200083C72000801230B9A73
:1046680059462846B04701303FF4CDAE0AF1010A59
:10467800D4F85890A9EB08035345EFDCDDE90D2386
:104688009A424F4414DB2368DA0711D40E9B0D9924
:10469800A3EB0902A3EB01099145A8BF9146B9F123
:1046A800000F0DDC002729EAE97904F11A0818E05F
:1046B800DDE9092359462846B0470130E6D1A2E68C
:1046C8004B463A4659462846B0470130EAD19AE661
:1046D8000123424659462846B04701303FF493AE7D
:1046E8000137DDE90D239B1AA3EB0903BB42EFDC7D
:1046F8004DE70E9A012A01DCDB0738D501233A463B
:1047080059462846B04701303FF47DAEDDE909231C
:1047180059462846B047013007F101073FF473AE08
:10472800D4E912010E9B002203F1FF380023FCF7A5
:10473800A3F9C0B943463A4659462846B04701301E
:104748000DD160E60123424659462846B04701305C
:104758003FF459AE01370E9B013BBB42F2DC4B469E
:1047680004F15002E4E6002704F11A08F3E70123F4
:10477800E1E70123424659462846B04701303FF455
:1047880042AE0137E3680F9A9B1ABB42F1DC02E79D
:10479800002704F11908F5E7002B3FF494AE4FF019
:1047A800000CCDE9051C0DF133012260CDE90308A9
:1047B800CDE9012100933A464B462846FFF73AFDDA
:1047C80007464FE62DE9F04791461F468A680B6970
:1047D80006469342B8BF1346C9F8003091F8432003
:1047E8000C46DDF8208012B10133C9F80030236887
:1047F800990642BFD9F800300233C9F8003025685D
:1048080015F0060507D104F1190AE368D9F8002064
:104818009B1AAB4229DC94F843302268003318BF56
:10482800012392062ED404F1430239463046C0478C
:10483800013021D02368E56803F00603042B18BF74
:104848000025D9F800204FF0000908BFAD1AA36869
:10485800226908BF25EAE5759342C4BF9B1AED1883
:104868001A344D451AD1002008E001235246394632
:104878003046C047013003D14FF0FF30BDE8F08724
:104888000135C2E73020E11881F843005A1C94F83A
:1048980045102244023382F84310C4E7012322461C
:1048A80039463046C0470130E6D009F10109D8E75A
:1048B8002DE9F04301F1430C0C46097E85B06E29C1
:1048C8001746064698460C9A00F0B38022D863290A
:1048D80036D00AD8002900F0B980582900F0838022
:1048E80004F1420584F8421032E0642901D06929B4
:1048F800F6D120681368050603F104012AD51B6860
:104908001160002B03DA2D225B4284F843206F48A4
:104918000A2239E0732900F09D8008D86F2920D039
:104928007029DDD1236843F02003236003E0752953
:1049380017D07829D4D17823654884F8453055E0D4
:10494800136804F14205191D1B68116084F8423090
:1049580001238CE01B6810F0400F116018BF1BB2D8
:10496800CFE713682568181D1060280601D51B6855
:1049780002E06806FBD51B886F2914BF0A220822AB
:104988005248002184F843106568002DA560C0F2E4
:104998009580216821F004012160002B3DD1002D74
:1049A80040F08E806546082A0BD12368DB0708D5BE
:1049B800236962689A42DEBF302305F8013C05F19D
:1049C800FF35ACEB05032361CDF800803B4603AA15
:1049D80021463046FFF7F6FE01304DD14FF0FF304B
:1049E80005B0BDE8F083394884F84510136821689C
:1049F8001D1D1B6815600A060BD5CA0744BF41F088
:104A0800200121601BB9226822F0200222601022B6
:104A1800B7E74D0648BF9BB2EFE76546B3FBF2F137
:104A280002FB1133C35C05F8013D0B460029F5D1A3
:104A3800B9E713682568181D6169106028061B68A6
:104A480001D5196002E06A06FBD519800023654686
:104A58002361B9E71368191D11601D686268002198
:104A6800284601F0DDF908B1401B606063682361E6
:104A7800002384F84330A7E723692A46394630469D
:104A8800C0470130AAD023689B0713D4E068039B72
:104A98009842B8BF1846A3E701234A46394630462C
:104AA800C04701309AD00135E368039A9B1AAB429C
:104AB800F2DCEBE7002504F11909F5E7002BACD18E
:104AC800037804F1420584F842306CE73E7200082E
:104AD8004F7200080FB40A4B13B51C6824B1A369C0
:104AE80013B9204601F098F805AB049AA16820464E
:104AF800019301F0B7FE02B0BDE8104004B0704762
:104B08002C00002038B5084B05461C6824B1A36961
:104B180013B9204601F080F8A26829462046BDE86E
:104B2800384001F0B3BF00BF2C00002070B50E461E
:104B3800054618B183690BB901F06EF8AB69AC682A
:104B480013B9284601F068F8234B9C4217D16C68CA
:104B5800A3891B071DD52369DBB1013EA36816F89D
:104B6800011F013BA360E9B9002B2EDA22460A2176
:104B7800284600F05FF8013011D00A2011E0174BE9
:104B88009C4201D1AC68E3E7154B9C4208BFEC6836
:104B9800DEE72146284600F09FF80028DDD04FF0D8
:104BA800FF3070BD002B04DAA2699A4206DC0A299C
:104BB80004D023685A1C22601970CFE72246284681
:104BC80000F038F80130C9D1E9E70A2023685A1CF7
:104BD80022601870E5E700BF90720008B072000804
:104BE80070720008024B01461868FFF79FBF00BFAC
:104BF8002C0000200EB46FF0004100B59CB01DAB36
:104C080002900690079104910848094953F8042B2B
:104C18000591006802A9019301F006FD0022029B9C
:104C28001A701CB05DF804EB03B070472C0000202C
:104C38000802FFFFF8B50E461446054618B1836909
:104C48000BB900F0E9FF214B9C422AD16C68A3699B
:104C5800A360A3891A072ED5236963B32369206843
:104C6800F6B2C01A63693746834204DC21462846F7
:104C780000F068FF28BBA3680130013BA3602368EC
:104C88005A1C22601E706369834204D0A389DB0723
:104C980019D50A2E17D12146284600F053FF90B1A6
:104CA8000FE00B4B9C4201D1AC68D0E7094B9C420A
:104CB80008BFEC68CBE72146284600F00DF800282D
:104CC800CCD04FF0FF373846F8BD00BF90720008CF
:104CD800B072000870720008324B70B51D68064645
:104CE8000C4625B1AB6913B9284600F095FF2E4B49
:104CF8009C420FD16C68B4F90C309AB215072CD4C9
:104D0800D00611D40922326043F04003A3814FF04A
:104D1800FF303EE0254B9C4201D1AC68EBE7244BC9
:104D28009C4208BFEC68E6E7510712D5616B41B1B8
:104D380004F14403994202D0304601F075FB002388
:104D48006363A38923F02403A38100236360236999
:104D58002360A38943F00803A38123694BB9A3897E
:104D680003F42073B3F5007F03D02146304601F0E9
:104D78000FF8A28912F001030CD00023A360636925
:104D88005B42A361236953B9B4F90C3013F0800076
:104D9800BAD170BD920758BF6369A360F2E70020DB
:104DA800F7E700BF2C00002090720008B0720008DE
:104DB800707200082DE9F74F03690C698046A34219
:104DC800C0F28480013C01F1140700F1140657F881
:104DD800245056F824000135B0FBF5F54FEA840C51
:104DE80006EB0C0307EB0C0901939DB34FF0000A87
:104DF8003846B646D34650F8042B93B205FB03A3B6
:104E0800120C4FEA134A05FB02A29BB2ABEB030359
:104E1800DEF800B04FEA124A1FFA8BFB5B441FFA18
:104E280082FBDEF800208145CBEB124202EB2342E5
:104E38009BB243EA02434FEA224B4EF8043BDAD2D4
:104E480056F80C3033B9019B043B9E421A4631D3C5
:104E5800C8F81040404601F011FA002826DB304619
:104E68004FF0000C013557F8041BD0F800E08BB266
:104E7800ACEB03031FFA8EF213440A0CC2EB1E427A
:104E880002EB23429BB243EA0243B9454FEA224C64
:104E980040F8043BE7D256F8242006EB84032AB9ED
:104EA800043B9E421A460BD3C8F81040284603B06C
:104EB800BDE8F08F1268043B002AC9D1013CC4E761
:104EC8001268043B002AEFD1013CEAE70020EEE734
:104ED8002DE9F04F16461F46456A95B00446DDF8A1
:104EE8008480CDE902673DB9102000F091FF60622F
:104EF800C0E901550560C560636A196851B15A680F
:104F0800012393404A608B60204600F0D6FF0022C0
:104F1800636A1A603B1EAFBF0023012223F00043DF
:104F28000393ACBFC8F80030C8F80020AE4BDDF8DA
:104F38000C8033EA08031BD142F20F73209A1360E6
:104F4800029B23B9C8F31300002800F04585229B73
:104F580053B9A64B21E0A64B06930833229A136057
:104F6800069815B0BDE8F08FA04B06930333F5E71C
:104F7800DDE902670022002330463946FBF77CFD55
:104F8800824660B10123209A1360229B002B00F017
:104F98002085984B229A1360013B0693E0E712ABF9
:104FA800019313AB009332463B46204601F0DEF9ED
:104FB800C8F30A558346002D7DD0B046C7F31303C6
:104FC80043F07F5949F44019A5F2FF35CDF840A0C8
:104FD8000022894B40464946FBF72EF97CA3D3E9CA
:104FE8000023FBF7E1FA7CA3D3E90023FBF726F9BA
:104FF800064628460F46FBF76DFA79A3D3E9002346
:10500800FBF7D2FA02460B4630463946FBF716F94B
:1050180006460F46FBF778FD0022824600233046FD
:105028003946FBF733FD48B15046FBF753FA324691
:105038003B46FBF721FD08B90AF1FF3ABAF1160F12
:105048005AD8DDE902236D4901EBCA01D1E9000113
:10505800FBF73AFD002851D000230AF1FF3A0D93DF
:10506800129B5D1B6B1E079343BF0023C5F101090B
:1050780007934FF00009BAF1000F41DB079BCDF809
:1050880030A053440793002308931E9B092B00F27A
:105098008F80052BC4BF043B1E931E9BC8BF0025F1
:1050A800A3F10203D8BF0125032B00F28D80DFE8AE
:1050B80003F07B7D2F6FDDE912531D4405F232406A
:1050C800202813DDC0F14000029B08FA00F805F221
:1050D800124023FA00F048EA0000FBF7EBF901233D
:1050E8008046A1F1F879013D109371E7029BC0F168
:1050F800200003FA00F0F0E70123B0E70D90AFE7D6
:10510800CAF1000308930023A9EB0A090C93BCE732
:10511800012309931F9B002B74DD984604930022FA
:10512800666A7260042202F11400984271686ED9AE
:10513800204600F08EFE636A30601B68B8F10E0FDF
:10514800069300F2ED80002D00F0EA80DDE90223ED
:10515800BAF1000FCDE90E2377DD284A0AF00F03D4
:105168004FEA2A1602EBC303F006D3E90023CDE980
:105178000A2368D5DDE90E01214B0325D3E908236D
:10518800FBF73CFBCDE9020106F00F061C4F4FE090
:10519800012309931F9B534403F1010804934346D9
:1051A800012BB8BF0123BAE70023B2E70023F0E7D9
:1051B8000125002309951E934FF0FF330022049325
:1051C800984612231F92AAE701230993F4E700BF28
:1051D80061436F63A787D23FB3C8608B288AC63FF5
:1051E800FB799F501344D33F0000F07F6972000899
:1051F800607200083D7200080000F83FF87200086D
:10520800D07200080123049398461A46DAE7013160
:105218007160520087E7F10708D5DDE90A01D7E98F
:105228000023FBF7C1F9CDE90A01013576100837EB
:10523800002EF0D1DDE90A23DDE90201FBF7DEFAF1
:10524800CDE902011BE00225A0E700F0A480DDE91A
:105258000E01CAF10006A04B06F00F0203EBC203D1
:10526800D3E90023FBF7A0F902250023CDE90201C9
:105278009A4F3611002E40F08380002BE0D10D9B11
:10528800002B00F08A80DDE90223CDE90A23DDE95D
:105298000A010022924BFBF7F9FB00287DD0B8F1F8
:1052A800000F7AD0049B002B36DDDDE90A010022CD
:1052B8008C4BFBF779F9CDE90201049E0AF1FF371F
:1052C80001352846FBF706F9DDE90223FBF76CF9FF
:1052D8000022854BFAF7B2FFA1F15075CDE90A011A
:1052E8000B95002E5CD1DDE9020100227F4BFAF715
:1052F800A3FF0A9A2B46CDE90201FBF7E5FB00283C
:1053080040F08182DDE902010A9A05F10043FBF7CA
:10531800BDFB002840F07582DDE90E23CDE90223AC
:10532800139B002BC0F24B81BAF10E0F00F347819B
:10533800694B03EBCA03D3E90023CDE904231F9B80
:10534800002B80F2D780B8F1000F00F3D38040F033
:105358005782DDE904010022644BFBF725F9DDE9FA
:105368000223FBF7A7FB46464746002840F02D825C
:10537800069B069A5D1C31230AF1010A137028E284
:10538800F20705D5D7E90023FBF70EF9012301350C
:10539800761008376EE7022571E75746464690E7CC
:1053A8004D4B03EBC60353E90201099B002B48D080
:1053B80002460B4600204E49FBF720FADDE90A2396
:1053C800FAF73AFFCDE90A01069DDDE90201FBF78C
:1053D8009BFB1190FBF77EF802460B46DDE90201C4
:1053E800FAF72AFF119BCDE90201303305F8013B9A
:1053F800DDE90A23FBF74AFB002863D1DDE9022334
:1054080000203749FAF718FFDDE90A23FBF73EFBCE
:10541800002840F0B580069BEB1A9E427FF77CAFD0
:10542800DDE90A0100222F4BFBF7BEF80022CDE987
:105438000A01DDE902012B4BFBF7B6F8CDE90201C1
:10544800C3E7DDE90A23FBF7AFF8069BCDE90A01BC
:105458009D191E46DDE90201FBF756FB1190FBF78B
:1054680039F802460B46DDE90201FAF7E5FE119B21
:10547800CDE90201303306F8013BAE424FF000029D
:1054880024D1DDE90A011A4BFAF7D8FE02460B4689
:10549800DDE90201FBF718FB002871D1DDE90A23D9
:1054A80000201349FAF7C8FE02460B46DDE902015F
:1054B800FBF7ECFA00283FF42FAF15F8013C6A1E01
:1054C800302B01D0BA464AE01546F6E7054BFBF704
:1054D8006BF8CDE90201BDE7F8720008D072000848
:1054E8000000F03F0000244000001C400000144071
:1054F8000000E03F069DDDE90267DDE90423304650
:105508003946FBF77BF9FBF7FFFA8146FAF7E2FF2A
:10551800DDE90423FBF748F802460B4630463946D6
:10552800FAF78AFE09F1300605F8016B069E024675
:10553800AE1BB0450B4635D1FAF780FEDDE90423F2
:1055480006460F46FBF7C0FAC8B9DDE90423304622
:105558003946FBF791FA10B119F0010F0FD15946EE
:10556800204600F0AAFC0023209A2B700AF10103C0
:105578001360229B002B3FF4F3AC1D60F0E4574608
:1055880015F8012C6B1E392A06D1069A9A4207D1C2
:1055980030231370134601371A7801321A7091E7D5
:1055A8001D46EDE70022994BFAF7FEFF0022002383
:1055B80006460F46FBF760FA00289ED0CFE7099A07
:1055C800002A00F088801E9A012A6DDC109A002AB1
:1055D80066D003F233434D46089E079A01211A44C8
:1055E80020469944079200F008FD0746002D0BDD80
:1055F800079B002B08DDAB42A8BF2B46079AA9EBF7
:105608000309ED1AD31A0793089BEBB1099B002BEA
:1056180065D08EB139463246204600F08DFD5A4697
:1056280001460746204600F0F1FC59460A902046FC
:1056380000F043FC0A9B9B46089B9A1B04D05946E2
:10564800204600F079FD83460121204600F0D5FC74
:105658000C9B0646002B00F0C6811A4601462046E0
:1056680000F06AFD1E9B0646012B3EDC029B002BC8
:1056780037D1039BC3F31303002B34D1039B23F0CF
:1056880000431B0D1B052BB1079B09F101090133D1
:105698000793012308930C9B002B28D101202EE0AF
:1056A800129BC3F1360396E7089B08F1FF36B34215
:1056B800B7BF089B9E1BF21A0C9BBFBF08969B188E
:1056C8000C930026B8F1000FB9BFA9EB0805002319
:1056D8004D46434681E7089E4D46099F86E7089A4E
:1056E800ADE70023D6E7029BD4E70023089333698C
:1056F80006EB8303186900F032FCC0F12000079B19
:10570800184410F01F0047D0C0F12003042B3BDDE4
:10571800079BC0F11C008144054403440793B9F179
:10572800000F05DD59464A46204600F053FD8346E2
:10573800079B002B05DD31461A46204600F04AFD3E
:1057480006460D9B53B33146584600F097FD002896
:1057580024DA002359460A22204600F0C5FB099B9B
:105768000AF1FF3A8346002B00F0448100233946B2
:105778000A22204600F0B8FB049B0746002B4DDCAC
:105788001E9B022B4ADD11E0C9D0079A1C331A442C
:1057980099441D441346C1E70346F6E7B8F1000FE4
:1057A80036DC1E9B022B33DDCDF81080049B63B9D9
:1057B80031460522204600F097FB0146064658462A
:1057C80000F05CFD00283FF7D3AD1F9B069D6FEAF4
:1057D800030A4FF000093146204600F06EFB002F07
:1057E8003FF4BDAEB9F1000F05D0B94503D0494625
:1057F800204600F062FB3946204600F05EFBAEE62C
:1058080000263746E1E7BA463746B1E500002440AE
:10581800099BCDF81080002B00F0F380002D05DDEA
:1058280039462A46204600F0D5FC0746089B002B3F
:105838004CD07968204600F00CFB05463A6907F120
:105848000C01023292000C3000F0F8FA01222946CD
:10585800204600F0BFFCB9460746069B0793029B0B
:1058680003F00103089331465846FFF7A3FA494667
:10587800054600F13008584600F000FD3A4602900F
:105888003146204600F014FDC368024603BB0146BA
:105898000990584600F0F2FC0346099A1146204642
:1058A800099300F00AFB099BA3B91E9A92B9089ABA
:1058B80082B9B8F1390F29D0029B002B01DD05F11F
:1058C8003108079B5D1C83F8008084E73846C2E7EF
:1058D8000123E3E7029A002A04DB23D11E9A0ABBBC
:1058E800089AFAB9002BECDD59460122204600F04F
:1058F80071FC3146834600F0C1FC002803DCE0D18E
:1059080018F0010FDDD0B8F1390FD8D1079B079AED
:105918005D1C3923137015F8013C6A1E392B4DD0D4
:10592800013352E0079A002B02F1010506DDB8F1B8
:10593800390FEBD008F10108079BC4E7069B049ACE
:10594800EB1A934205F8018C21D0594600230A220C
:10595800204600F0C9FAB94583464FF000034FF0DE
:105968000A024946204605D100F0BEFA814607469C
:10597800079578E700F0B8FA3946814600230A22ED
:10598800204600F0B1FA0746F2E74FF00009594601
:105998000122204600F01EFC3146834600F06EFCD2
:1059A8000028B8DC02D118F0010FB4D115F8013C79
:1059B8006A1E302B7FF40FAF1546F7E7069B93421C
:1059C80005D13123069A0AF1010A137003E7154637
:1059D800A1E7174BFFF7E1BA229B002B7FF4BBAA84
:1059E800144BFFF7DABA1E9B012B7FF73FAE0C9BD7
:1059F800089353E6049B002B03DC1E9B022B3FF706
:105A0800D5AE069D31465846FFF7D4F9069B00F1FE
:105A1800300805F8018B049AEB1A9A42B5DD59460D
:105A280000230A22204600F05FFA8346EAE700BF17
:105A38003C720008607200088A892DE9F041054629
:105A480010070C4658D44B68002B05DC0B6C002B58
:105A580002DC0020BDE8F081E66A002EF9D00023C0
:105A680012F480522F68216A2B6032D0606DA389AE
:105A78005A0705D56368C01A636B0BB1236CC01A4B
:105A880000230246E66A216A2846B047431CA389D8
:105A980006D129681D2948D8294ACA40D60744D5BD
:105AA800002262602269D904226004D5421C01D117
:105AB8002B6803B96065616B2F600029C9D004F1B8
:105AC8004403994202D0284600F0AEFC00206063EF
